:020000040800F2
:1000000000000220050500087D0500087D050008A8
:100010007D0500087D0500087D0500080000000042
:100020000000000000000000000000007D05000846
:100030007D050008000000007D0500086906000835
:100040007D0500087D0500087D0500087D05000888
:100050007D0500087D0500087D0500087D05000878
:100060007D0500087D0500087D0500087D05000868
:100070007D0500087D0500087D0500087D05000858
:100080007D0500087D0500087D0500087D05000848
:100090007D0500087D0500087D0500087D05000838
:1000A0007D0500087D0500087D0500087D05000828
:1000B0007D0500087D0500087D0500087D05000818
:1000C0007D0500087D0500087D0500087D05000808
:1000D0007D0500087D0500087D0500087D050008F8
:1000E0007D0500087D0500087D0500087D050008E8
:1000F0007D0500087D0500087D0500087D050008D8
:100100007D0500087D0500087D0500087D050008C7
:100110007D0500087D0500087D0500087D050008B7
:100120007D0500087D0500087D0500087D050008A7
:100130007D0500087D0500087D0500087D05000897
:100140007D0500087D0500087D0500087D05000887
:100150007D0500087D0500087D0500087D05000877
:100160007D0500087D0500087D0500087D05000867
:100170007D0500087D0500087D0500087D05000857
:080180007D0500087D05000863
:1001880080B500AF4FF46D43CEF200034FF46D42DB
:10019800CEF20002D2F8882042F47002C3F8882018
:1001A8004FF46053C4F202034FF46052C4F20202E7
:1001B800126842F001021A604FF46053C4F202035D
:1001C80000229A604FF46053C4F202034FF4605265
:1001D800C4F20202126822F0847222F480321A6099
:1001E8004FF46053C4F2020343F21002C2F2004219
:1001F8005A604FF46053C4F202034FF46052C4F2E1
:100208000202126822F480221A604FF46053C4F28A
:1002180002030022DA6000F0B3F84FF46D43CEF227
:1002280000034FF000629A6080BD00BF80B487B0C1
:1002380000AF00233B6100237B610223FB600023A6
:10024800BB6002237B604FF46053C4F202039B68D7
:1002580003F00C033B613B69042B0DD0082B15D030
:10026800002B63D140F20003C2F200034FF4105296
:10027800C0F2F4021A6063E040F20003C2F2000325
:100288004FF49052C0F27A021A6059E04FF460536A
:10029800C4F202035B6803F480039B0DBB604FF458
:1002A8006053C4F202035B6803F03F037B60BB68E2
:1002B800002B13D04FF49053C0F27A037A68B3FB43
:1002C800F2F24FF46053C4F20203596847F6C07360
:1002D8000B409B0903FB02F37B6112E04FF41053C0
:1002E800C0F2F4037A68B3FBF2F24FF46053C4F23D
:1002F8000203596847F6C0730B409B0903FB02F3DE
:100308007B614FF46053C4F202035B6803F440332B
:100318001B0C01335B00FB607A69FB68B2FBF3F2EC
:1003280040F20003C2F200031A6009E040F2000341
:10033800C2F200034FF41052C0F2F4021A6000BF78
:100348004FF46053C4F202039B6803F0F0031A09E8
:1003580040F20403C2F200039B5CDBB23B6140F253
:100368000003C2F200031A683B69DA4040F2000356
:10037800C2F200031A601C37BD465DF8047B704763
:1003880080B483B000AF00237B6000233B604FF450
:100398006053C4F202034FF46052C4F202021268BE
:1003A80042F480321A604FF46053C4F202031B68AF
:1003B80003F400333B607B6801337B603B68002BB0
:1003C80003D17B68B3F5A06FEDD14FF46053C4F24D
:1003D80002031B6803F40033002B02D001233B60A7
:1003E80001E000233B603B68012B40F082804FF422
:1003F8006053C4F202034FF46052C4F20202126C5A
:1004080042F080521A644FF4E043C4F200034FF400
:10041800E042C4F20002126842F480421A604FF4CB
:100428006053C4F202034FF46052C4F202029268AD
:100438009A604FF46053C4F202034FF46052C4F25E
:100448000202926842F400429A604FF46053C4F288
:1004580002034FF46052C4F20202926842F4A052BE
:100468009A604FF46053C4F2020345F20842C0F2A6
:1004780040725A604FF46053C4F202034FF4605262
:10048800C4F20202126842F080721A6000BF4FF490
:100498006053C4F202031B6803F00073002BF6D00C
:1004A8004FF47053C4F2020340F205621A604FF42D
:1004B8006053C4F202034FF46052C4F2020292681D
:1004C80022F003029A604FF46053C4F202034FF41F
:1004D8006052C4F20202926842F002029A6000BFBF
:1004E8004FF46053C4F202039B6803F00C03082B1B
:1004F800F6D10C37BD465DF8047B7047684620F09E
:1005080007018D4681B585B000AF41F6A463C0F6FA
:100518000003FB6040F20003C2F20003BB6009E085
:10052800FB681A68BB681A60BB680433BB60FB6869
:100538000433FB60BA6840F22403C2F200039A4213
:10054800EED340F22403C2F20003BB6004E0BB68B0
:100558001A1DBA6000221A60BA6840F23003C2F26B
:1005680000039A42F3D3FFF70BFE00F08BF8786094
:10057800FEE700BF80B400AFBD465DF8047B70475E
:1005880080B483B000AF03463960FB7197F9073038
:10059800002B0EDA4FF46D43CEF20003FA7902F025
:1005A8000F02111F3A68D2B21201D2B20B441A7666
:1005B8000CE04FF46143CEF2000397F907103A6854
:1005C800D2B21201D2B20B4483F800230C37BD46D5
:1005D8005DF8047B704700BF80B582B000AF7860DB
:1005E8007B68B3F1807F01D301231AE04EF2100338
:1005F800CEF200037A6822F07F42013A5A604FF047
:10060800FF300F21FFF7BCFF4EF21003CEF20003BC
:1006180000229A604EF21003CEF2000307221A60FD
:10062800002318460837BD4680BD00BF80B485B09A
:1006380000AF786040F22C03C2F200031B68FB6035
:1006480000BF40F22C03C2F200031A68FB68D21AFA
:100658007B689A42F5D31437BD465DF8047B704732
:1006680080B400AF40F22C03C2F200031B685A1C8E
:1006780040F22C03C2F200031A60BD465DF8047B09
:10068800704700BF80B500AFFFF7D0FD40F2000310
:10069800C2F200031A6844F6D353C1F26203A3FB03
:1006A80002139B091846FFF797FF0346002B00D05B
:1006B800FEE70820012100F0C9FB40F22403C2F242
:1006C80000034FF470421A6040F22403C2F20003A0
:1006D80001221A7140F22403C2F2000300229A7127
:1006E80040F22403C2F2000303225A7140F22403A9
:1006F800C2F200030022DA714FF44060C4F2020033
:1007080040F22401C2F2000100F03EFF4FF44060C5
:10071800C4F202004FF4805101F050F84FF47A709F
:10072800FFF784FF4FF44060C4F202004FF4005119
:1007380001F044F84FF47A70FFF778FF4FF4406007
:10074800C4F202004FF4804101F038F84FF47A7097
:10075800FFF76CFF4FF44060C4F202004FF4004111
:1007680001F02CF84FF47A70FFF760FF4FF4406007
:10077800C4F202004FF4704101F02EF84FF47A7081
:10078800FFF754FFC2E700BF80B400AF4FF46053D7
:10079800C4F202034FF46052C4F20202126842F03B
:1007A80001021A604FF46053C4F2020300229A60F7
:1007B8004FF46053C4F202034FF46052C4F20202D1
:1007C800126822F0847222F480321A604FF4605367
:1007D800C4F2020343F21002C2F200425A604FF41C
:1007E8006053C4F202034FF46052C4F2020212686A
:1007F80022F480221A604FF46053C4F202030022EC
:10080800DA60BD465DF8047B704700BF80B483B0F2
:1008180000AF0346FB7143F60203C4F20203002251
:100828001A7043F60203C4F20203FA791A700C37FD
:10083800BD465DF8047B704780B582B000AF0023E9
:100848003B600023FB710023BB71312000F084FD65
:100858000346BB713B6801333B603B68B3F5A06F4F
:1008680002D0BB79002BF0D0312000F075FD034693
:10087800002B02D00123FB7101E00023FB71FB79FF
:1008880018460837BD4680BD80B485B000AF034622
:10089800FB710023FB604FF46053C4F202031B6832
:1008A800FB60FB6823F0F803FB60FB79DB00FA6868
:1008B8001343FB604FF46053C4F20203FA681A60F2
:1008C8001437BD465DF8047B704700BF80B483B021
:1008D80000AF0346FB710023C4F24723FA791A607C
:1008E8000C37BD465DF8047B704700BF80B483B009
:1008F80000AF0346FB7143F67003C4F20203002203
:100908001A7043F67003C4F2020300221A70FB79CE
:10091800012B02D0042B07D00DE043F67003C4F27C
:10092800020301221A7006E043F67003C4F20203C0
:1009380005221A7000BF0C37BD465DF8047B70476E
:1009480080B483B000AF0346FB714FF46863C4F210
:100958004723FA791A600C37BD465DF8047B704767
:1009680080B485B000AFF860B9607A603B604FF43E
:100978006053C4F202037A689101BA6811433A6875
:100988005208013A12041143FA681143BA6912066F
:100998000A435A601437BD465DF8047B704700BFB0
:1009A80080B483B000AF0346FB716023C4F24723D1
:1009B800FA791A600C37BD465DF8047B704700BFB2
:1009C80080B483B000AF786039604FF46053C4F2EC
:1009D80002037A6891013A6812070A43C3F884202F
:1009E8000C37BD465DF8047B704700BF80B483B008
:1009F80000AF0346FB716823C4F24723FA791A60F3
:100A08000C37BD465DF8047B704700BF80B483B0E7
:100A180000AF0346FB714C23C4F24723FA791A60EE
:100A28000C37BD465DF8047B704700BF80B485B0C5
:100A380000AF786039600023FB604FF46053C4F264
:100A480002039B68FB60FB6823F0EC63FB607A6839
:100A58003B681343FA681343FB604FF46053C4F2D6
:100A68000203FA689A601437BD465DF8047B704744
:100A780080B485B000AF786039600023FB604FF424
:100A88006053C4F202039B68FB60FB6823F0784361
:100A9800FB607A683B681343FA681343FB604FF4C2
:100AA8006053C4F20203FA689A601437BD465DF8D1
:100AB800047B704780B485B000AF78600023FB608A
:100AC8004FF46053C4F202039B68FB60FB6823F099
:100AD8000303FB60FA687B681343FB604FF46053C1
:100AE800C4F20203FA689A601437BD465DF8047BC5
:100AF800704700BF80B400AF4FF46053C4F20203E4
:100B08009B68DBB203F00C03DBB21846BD465DF808
:100B1800047B704780B485B000AF78600023FB6029
:100B28004FF46053C4F202039B68FB60FB6823F038
:100B3800F003FB60FA687B681343FB604FF4605373
:100B4800C4F20203FA689A601437BD465DF8047B64
:100B5800704700BF80B485B000AF78600023FB60A9
:100B68004FF46053C4F202039B68FB60FB6823F4F4
:100B7800E053FB60FA687B681343FB604FF46053F3
:100B8800C4F20203FA689A601437BD465DF8047B24
:100B9800704700BF80B485B000AF78600023FB6069
:100BA8004FF46053C4F202039B68FB60FB6823F4B4
:100BB8006043FB607B68DB00FA681343FB604FF41B
:100BC8006053C4F20203FA689A601437BD465DF8B0
:100BD800047B704780B489B000AF78600023BB61A4
:100BE80000237B610023FB6102233B610023FB6040
:100BF8000223BB604FF46053C4F202039B6803F006
:100C08000C03BB61BB69042B0AD0082B0FD0002B47
:100C18005AD17A684FF41053C0F2F40313605AE0C3
:100C28007A684FF49053C0F27A03136053E04FF49C
:100C38006053C4F202035B6803F480039B0DFB60FE
:100C48004FF46053C4F202035B6803F03F03BB60D8
:100C5800FB68002B13D04FF49053C0F27A03BA68A4
:100C6800B3FBF2F24FF46053C4F20203596847F63B
:100C7800C0730B409B0903FB02F3FB6112E04FF4C6
:100C88001053C0F2F403BA68B3FBF2F24FF46053A6
:100C9800C4F20203596847F6C0730B409B0903FB73
:100CA80002F3FB614FF46053C4F202035B6803F480
:100CB80040331B0C01335B003B61FA693B69B2FBB3
:100CC800F3F27B681A6006E07A684FF41053C0F2BA
:100CD800F403136000BF4FF46053C4F202039B682F
:100CE80003F0F003BB61BB691B09BB6140F214034D
:100CF800C2F20003BA6913441B78DBB27B617B68DC
:100D08001A687B69DA407B685A604FF46053C4F212
:100D180002039B6803F4E053BB61BB699B0ABB6198
:100D280040F21403C2F20003BA6913441B78DBB221
:100D38007B617B685A687B69DA407B689A604FF40C
:100D48006053C4F202039B6803F46043BB61BB6950
:100D58005B0BBB6140F21403C2F20003BA6913448F
:100D68001B78DBB27B617B685A687B69DA407B68F9
:100D7800DA602437BD465DF8047B704780B485B0DF
:100D880000AF78600023FB607B6803F44073B3F521
:100D9800407F17D14FF46053C4F202039B68FB6095
:100DA800FB6823F4F813FB607B6823F0704323F49B
:100DB8004073FA681343FB604FF46053C4F20203B4
:100DC800FA689A604FF46053C4F202034FF4605219
:100DD800C4F20202116F7A68C2F30B020A431A675F
:100DE8001437BD465DF8047B704700BF80B483B0FC
:100DF80000AF0346FB7140F63C63C4F24723FA791F
:100E08001A600C37BD465DF8047B704780B483B028
:100E180000AF0346FB714FF46463C4F24723FA79C9
:100E28001A600C37BD465DF8047B704780B483B008
:100E380000AF78604FF4AE73C4F247237A681A6043
:100E48000C37BD465DF8047B704700BF80B483B0A3
:100E580000AF78600B46FB70FB78002B0CD04FF48A
:100E68006053C4F202034FF46052C4F20202116BE1
:100E78007A680A431A630CE04FF46053C4F2020321
:100E88004FF46052C4F20202116B7A68D2430A40EE
:100E98001A630C37BD465DF8047B704780B483B095
:100EA80000AF78600B46FB70FB78002B0CD04FF43A
:100EB8006053C4F202034FF46052C4F20202516B51
:100EC8007A680A435A630CE04FF46053C4F2020391
:100ED8004FF46052C4F20202516B7A68D2430A405E
:100EE8005A630C37BD465DF8047B704780B483B005
:100EF80000AF78600B46FB70FB78002B0CD04FF4EA
:100F08006053C4F202034FF46052C4F20202916BC0
:100F18007A680A439A630CE04FF46053C4F2020300
:100F28004FF46052C4F20202916B7A68D2430A40CD
:100F38009A630C37BD465DF8047B704780B483B074
:100F480000AF78600B46FB70FB78002B0CD04FF499
:100F58006053C4F202034FF46052C4F20202116CEF
:100F68007A680A431A640CE04FF46053C4F202032F
:100F78004FF46052C4F20202116C7A68D2430A40FC
:100F88001A640C37BD465DF8047B704780B483B0A3
:100F980000AF78600B46FB70FB78002B0CD04FF449
:100FA8006053C4F202034FF46052C4F20202516C5F
:100FB8007A680A435A640CE04FF46053C4F202039F
:100FC8004FF46052C4F20202516C7A68D2430A406C
:100FD8005A640C37BD465DF8047B704780B483B013
:100FE80000AF78600B46FB70FB78002B0CD04FF4F9
:100FF8006053C4F202034FF46052C4F20202116952
:101008007A680A431A610CE04FF46053C4F2020391
:101018004FF46052C4F2020211697A68D2430A405E
:101028001A610C37BD465DF8047B704780B483B005
:1010380000AF78600B46FB70FB78002B0CD04FF4A8
:101048006053C4F202034FF46052C4F202025169C1
:101058007A680A435A610CE04FF46053C4F2020301
:101068004FF46052C4F2020251697A68D2430A40CE
:101078005A610C37BD465DF8047B704780B483B075
:1010880000AF78600B46FB70FB78002B0CD04FF458
:101098006053C4F202034FF46052C4F20202916931
:1010A8007A680A439A610CE04FF46053C4F2020371
:1010B8004FF46052C4F2020291697A68D2430A403E
:1010C8009A610C37BD465DF8047B704780B483B0E5
:1010D80000AF78600B46FB70FB78002B0CD04FF408
:1010E8006053C4F202034FF46052C4F20202116A60
:1010F8007A680A431A620CE04FF46053C4F20203A0
:101108004FF46052C4F20202116A7A68D2430A406C
:101118001A620C37BD465DF8047B704780B483B013
:1011280000AF78600B46FB70FB78002B0CD04FF4B7
:101138006053C4F202034FF46052C4F20202516ACF
:101148007A680A435A620CE04FF46053C4F202030F
:101158004FF46052C4F20202516A7A68D2430A40DC
:101168005A620C37BD465DF8047B704780B483B083
:1011780000AF78600B46FB70FB78002B0CD04FF467
:101188006053C4F202034FF46052C4F20202116DBC
:101198007A680A431A650CE04FF46053C4F20203FC
:1011A8004FF46052C4F20202116D7A68D2430A40C9
:1011B8001A650C37BD465DF8047B704780B483B070
:1011C80000AF78600B46FB70FB78002B0CD04FF417
:1011D8006053C4F202034FF46052C4F20202516D2C
:1011E8007A680A435A650CE04FF46053C4F202036C
:1011F8004FF46052C4F20202516D7A68D2430A4039
:101208005A650C37BD465DF8047B704780B483B0DF
:1012180000AF78600B46FB70FB78002B0CD04FF4C6
:101228006053C4F202034FF46052C4F20202916D9B
:101238007A680A439A650CE04FF46053C4F20203DB
:101248004FF46052C4F20202916D7A68D2430A40A8
:101258009A650C37BD465DF8047B704780B483B04F
:1012680000AF78600B46FB70FB78002B0CD04FF476
:101278006053C4F202034FF46052C4F20202116ECA
:101288007A680A431A660CE04FF46053C4F202030A
:101298004FF46052C4F20202116E7A68D2430A40D7
:1012A8001A660C37BD465DF8047B704780B483B07E
:1012B80000AF78600B46FB70FB78002B0CD04FF426
:1012C8006053C4F202034FF46052C4F20202516E3A
:1012D8007A680A435A660CE04FF46053C4F202037A
:1012E8004FF46052C4F20202516E7A68D2430A4047
:1012F8005A660C37BD465DF8047B704780B483B0EE
:1013080000AF02460B46FA71BB71BB79002B0ED0B9
:1013180043F60D03C4F2020343F60D02C4F20202BF
:101328001278D1B2FA790A43D2B21A700FE043F6B2
:101338000D03C4F2020343F60D02C4F2020212784E
:10134800D1B2FA79D243D2B20A40D2B21A700C376B
:10135800BD465DF8047B704780B487B000AF034694
:10136800FB710023FB6000237B610023FB74FB7986
:101378005B09DBB2FB60FB68012B06D14FF46053BD
:10138800C4F202031B687B610FE0FB68022B06D1E5
:101398004FF46053C4F202031B6F7B6105E04FF406
:1013A8006053C4F202035B6F7B61FB7903F01F0398
:1013B800FB60FB687A6922FA03F303F00103002B50
:1013C80002D00123FB7401E00023FB74FB7C184668
:1013D8001C37BD465DF8047B704700BF80B400AF82
:1013E8004FF46053C4F202034FF46052C4F2020295
:1013F800526F42F080725A67BD465DF8047B7047B1
:1014080080B485B000AF0346FB710023FB734FF433
:101418006053C4F20203DA68FB791340002B02D050
:101428000123FB7301E00023FB73FB7B1846143791
:10143800BD465DF8047B704780B483B000AF0346B7
:10144800FB7143F60E03C4F20203FA791A700C37E3
:10145800BD465DF8047B704780B582B000AF786008
:101468007A680023C4F202039A4208D101200121BC
:10147800FFF7B4FD01200021FFF7B0FD80E07A6896
:101488004FF48063C4F202039A4208D1022001217A
:10149800FFF7A4FD02200021FFF7A0FD70E07A68A5
:1014A8004FF40063C4F202039A4208D104200121D8
:1014B800FFF794FD04200021FFF790FD60E07A68B3
:1014C8004FF44063C4F202039A4208D10820012174
:1014D800FFF784FD08200021FFF780FD50E07A68BF
:1014E8004FF48053C4F202039A4208D1102001211C
:1014F800FFF774FD10200021FFF770FD40E07A68C7
:101508004FF4A053C4F202039A4208D120200121CB
:10151800FFF764FD20200021FFF760FD30E07A68C6
:101528004FF4C053C4F202039A4208D1402001216B
:10153800FFF754FD40200021FFF750FD20E07A68B6
:101548004FF4E053C4F202039A4208D180200121EB
:10155800FFF744FD80200021FFF740FD10E07A6886
:101568004FF40053C4F202039A4209D14FF4807039
:101578000121FFF733FD4FF480700021FFF72EFDA6
:101588000837BD4680BD00BF80B487B000AF786023
:10159800396000237B6100233B610023FB6000234B
:1015A8007B6176E07B69012202FA03F33B613B68C9
:1015B8001A683B691340FB60FA683B699A4265D137
:1015C8007B681A687B695B00032101FA03F3DB433C
:1015D8001A407B681A607B681A683B681B79194651
:1015E8007B695B0001FA03F31A437B681A603B6866
:1015F8001B79012B03D03B681B79022B2ED17B680A
:101608009A687B695B00032101FA03F3DB431A4004
:101618007B689A607B689A683B685B7919467B6946
:101628005B0001FA03F31A437B689A607B685A6887
:101638007B699BB2012101FA03F3DB431A407B6803
:101648005A607B685A683B689B7919467B699BB2EC
:1016580001FA03F39BB21A437B685A607B68DA6825
:101668007B699BB25B00032101FA03F3DB431A4059
:101678007B68DA607B68DA683B68DB7919467B69E6
:101688005B0001FA03F31A437B68DA607B69013374
:101698007B617B690F2B85D91C37BD465DF8047BC0
:1016A800704700BF80B483B000AF78607B684FF6A6
:1016B800FF721A607B6800221A717B6800225A71D7
:1016C8007B6800229A717B680022DA710C37BD466C
:1016D8005DF8047B704700BF80B485B000AF7860C8
:1016E8000B467B804FF48033FB607A88FB6813439A
:1016F800FB60FA687B68DA617A887B68DA61FA6885
:101708007B68DA617B68DB69FB607B68DB69FB60AF
:101718001437BD465DF8047B704700BF80B485B0C0
:1017280000AF78600B467B800023FB737B681A69E7
:101738007B881340002B02D00123FB7301E00023B8
:10174800FB73FB7B18461437BD465DF8047B704776
:1017580080B483B000AF78607B681B699BB2184681
:101768000C37BD465DF8047B704700BF80B485B078
:1017780000AF78600B467B800023FB737B685A6957
:101788007B881340002B02D00123FB7301E0002368
:10179800FB73FB7B18461437BD465DF8047B704726
:1017A80080B483B000AF78607B685B699BB21846F1
:1017B8000C37BD465DF8047B704700BF80B483B02A
:1017C80000AF78600B467B807B687A881A830C3779
:1017D800BD465DF8047B704780B483B000AF786085
:1017E8000B467B807B687A885A830C37BD465DF848
:1017F800047B704780B483B000AF786013460A4614
:101808007A807B707B78002B03D07B687A881A8378
:1018180002E07B687A885A830C37BD465DF8047B02
:10182800704700BF80B483B000AF78600B467B8000
:101838007A887B685A610C37BD465DF8047B70472F
:1018480080B483B000AF78600B467B807B685A69B0
:101858007B885A407B685A610C37BD465DF8047B2B
:10186800704700BF80B485B000AF786013460A4661
:101878007A807B700023FB600023BB607A787B88CA
:1018880003F007039B0002FA03F3FB607B88DB0885
:101898009BB21A467B88DB089BB219467B680831E5
:1018A80053F821107B8803F007039B000F2000FAF0
:1018B80003F3DB4319407B68083243F822107B8826
:1018C800DB089BB21A467B68083253F82220FB6873
:1018D8001343BB607B88DB089BB21A467B680832DF
:1018E800B96843F822101437BD465DF8047B704789
:1018F80080B500AF4FF480400121FFF70FFC4FF493
:1019080080400021FFF70AFC80BD00BF80B483B08F
:1019180000AF0346FB714FF46053C4F20103FA7938
:101928001A600C37BD465DF8047B704790B484B0EC
:1019380000AF02460B46FA71BB710023FB60BB790E
:1019480003F003039B000F2202FA03F3FB604FF43A
:101958006053C4F20103BA799208D2B210464FF428
:101968006052C4F20102B9798908C9B2023152F849
:101978002110FA68D2431140821C43F822104FF418
:101988006053C4F20103BA799208D2B210464FF4F8
:101998006052C4F20102B9798908C9B2023152F819
:1019A8002110FC79BA7902F00302920004FA02F2DB
:1019B8001143821C43F822101037BD4690BC704773
:1019C80080B483B000AF7860DC23C4F227237A6840
:1019D8001A600C37BD465DF8047B704780B483B04D
:1019E80000AF0346FB714FF48063C4F22723FA79F2
:1019F8001A600C37BD465DF8047B704780B483B02D
:101A080000AF0023FB714FF46053C4F201031B6A5B
:101A180003F48073002B02D00123FB7101E0002343
:101A2800FB71FB7918460C37BD465DF8047B70479F
:101A380080B400AF4FF47053C4F2010300221A605F
:101A48004FF47053C4F2010300225A604FF47053EC
:101A5800C4F2010300229A604FF47053C4F20103E8
:101A68000022DA604FF47053C4F201034FF6FF729C
:101A7800C0F27F025A61BD465DF8047B704700BF23
:101A880080B485B000AF78600023FB604FF47053DA
:101A9800C4F20103FB607B689B79002B74D04FF480
:101AA8007053C4F201034FF47052C4F2010211687A
:101AB8007A681268D2430A401A604FF47053C4F22D
:101AC80001034FF47052C4F2010251687A68126837
:101AD800D2430A405A607B681B79FA681344FB605A
:101AE800FB68FA6811687A6812680A431A604FF44A
:101AF8007053C4F201034FF47052C4F201029168AA
:101B08007A681268D2430A409A604FF47053C4F25C
:101B180001034FF47052C4F20102D1687A68126866
:101B2800D2430A40DA607B685B79102B1AD14FF4F4
:101B38007053C4F201034FF47052C4F20102916869
:101B48007A6812680A439A604FF47053C4F201032A
:101B58004FF47052C4F20102D1687A6812680A43DD
:101B6800DA601EE04FF47053C4F20103FB607B6837
:101B78005B79FA681344FB60FB68FA6811687A6855
:101B880012680A431A600CE07B681B79FA681344F0
:101B9800FB60FB68FA6811687A681268D2430A40E9
:101BA8001A601437BD465DF8047B704780B483B073
:101BB80000AF78607B6800221A607B6800221A7187
:101BC8007B680C225A717B6800229A710C37BD46DB
:101BD8005DF8047B704700BF80B483B000AF7860C5
:101BE8004FF47053C4F201034FF47052C4F201026F
:101BF80011697A680A431A610C37BD465DF8047B9F
:101C0800704700BF80B485B000AF78600023FB73D5
:101C18004FF47053C4F201035A697B681340002BD8
:101C280002D00123FB7301E00023FB73FB7B184602
:101C38001437BD465DF8047B704700BF80B483B09D
:101C480000AF78604FF47053C4F201037A685A61A8
:101C58000C37BD465DF8047B704700BF80B485B083
:101C680000AF78600023FB730023BB604FF4705310
:101C7800C4F201031A687B681340BB604FF47053C9
:101C8800C4F201035A697B681340002B05D0BB6876
:101C9800002B02D00123FB7301E00023FB73FB7BC5
:101CA80018461437BD465DF8047B704780B483B08E
:101CB80000AF78604FF47053C4F201037A685A6138
:101CC8000C37BD465DF8047B704700BF80B483B015
:101CD80000AF78604FF46D43CEF200037A6842F0AB
:101CE800BF6242F40032DA600C37BD465DF8047B0F
:101CF800704700BF80B485B000AF78600023FB73E5
:101D08000023BB730F237B737B68DB78002B40D0E9
:101D18004FF46D43CEF20003DB68DB4303F4E0636A
:101D28001B0AFB73FB7BC3F10403BB737A7BFB7B4E
:101D380042FA03F37B737B685B781A46BB7B02FA33
:101D480003F3FB737B689A787B7B1340DAB2FB7BE7
:101D58001343FB73FB7B1B01FB734FF46143CEF210
:101D680000037A6812781344FA7B83F800234FF44F
:101D78006143CEF200037A6812785209D2B27968C8
:101D8800097801F01F01012000FA01F143F822103F
:101D980011E04FF46143CEF200037A6812785209D9
:101DA800D2B27968097801F01F01012000FA01F127
:101DB800203243F822101437BD465DF8047B704783
:101DC80080B483B000AF786039604FF46D43CEF2D1
:101DD80000033A6822F0604222F07F0279680A43E1
:101DE8009A600C37BD465DF8047B704780B483B0B9
:101DF80000AF02460B46FA71BB71BB79002B0CD0C1
:101E08004FF46D43CEF200034FF46D42CEF2000260
:101E18001169FA790A431A610CE04FF46D43CEF266
:101E280000034FF46D42CEF200021169FA79D243F1
:101E38000A401A610C37BD465DF8047B704700BF45
:101E480080B483B000AF78607B68042B0CD14EF26D
:101E58001003CEF200034EF21002CEF20002126816
:101E680042F004021A600BE04EF21003CEF20003B7
:101E78004EF21002CEF20002126822F004021A603A
:101E88000C37BD465DF8047B704700BF00000000BA
:0C1E98000000000000000000000000003E
:101EA400007A030A0000000000000000010203049D
:101EB40006070809000000000102030401020304EC
:041EC40006070809FC
:0400000508000505E5
:00000001FF
